:020000040000FA
:0600000040EF02F01200C7
:0A00060001009E0400008A000000C3
:0400100006000000E6
:0C001400D9CFE6FFE1CFD9FF050EE126B1
:10002000800E946E030E936E810EE66EE66A3C0EB1
:10003000E66EB5EC01F0E552E552E552010EE66ED2
:10004000E66A76D8E552E55281B067D081A0FED746
:10005000010EF36E040EF3CFDBFF090EF36E040EF8
:10006000DBCFF4FFF350F45C13E2320EE66EE66A87
:10007000580EE66E1B0EE66E040EDBCFE6FFE66A58
:1000800075D8006E060EE15E0050040EDB2AE5D73F
:10009000010EE66ECAD8E552DFD8580E000190195D
:1000A00002E11B0E911906E0010EE66EBED8E55284
:1000B000D3D8F3D7010EF36E040EF3CFDBFF090E96
:1000C000F36E040EDBCFF4FFF350F45C13E2320E58
:1000D000E66EE66AE80EE66E030EE66E040EDBCF11
:1000E000E6FFE66A43D8006E060EE15E0050040E9D
:1000F000DB2AE5D7010EE66E98D8E552ADD8E80EBA
:100100000001901902E1030E911906E0010EE66E5E
:100110008CD8E552A1D8F3D79BD796D7050EE15CD2
:1001200002E2E16AE552E16EE552E7CFD9FF120043
:10013000D9CFE6FFE1CFD9FFE652DF6AFE0EDB50F2
:10014000C009DF6EACA2FED7DFCFE6FF19EC02F0EC
:10015000E552ACA2FED7FD0EDBCFE6FF19EC02F0B4
:10016000E552E552E552E7CFD9FF1200D9CFE6FFBD
:10017000E1CFD9FF020EE126DF6A010EDB6AE00E55
:10018000E76EFD0EDBCF00F0FE0EDBCF01F0E75097
:100190000012FD0E00C0DBFFFE0E01C0DBFFFB0EF8
:1001A000DBCF00F0FC0EDBCF01F0060ED890013261
:1001B0000032E804FBE17F0E0014DF6E3F0EE76EB5
:1001C000FB0EDBCF00F0FC0EDBCF01F0E75000169A
:1001D000016A010E00C0DBFFACA2FED7FD0EDBCF33
:1001E000E6FF19EC02F0E552ACA2FED7DFCFE6FF46
:1001F00019EC02F0E552ACA2FED7010EDBCFE6FF10
:1002000019EC02F0E552ACA2FED7F90EDBCFE6FF07
:1002100019EC02F0E552020EE15C02E2E16AE552FD
:10022000E16EE552E7CFD9FF1200D9CFE6FFE1CF6B
:10023000D9FFFE0EDB50A009E76EFE0EE7CFDBFF15
:10024000ACA2FED7FE0EDBCFE6FF19EC02F0E552C2
:10025000E552E7CFD9FF1200D9CFE6FFE1CFD9FFB2
:10026000020EE1269EAAFED7FAEC01F000018A6F89
:100270008B6B800B01E08B699EAAFED7FAEC01F034
:1002800000018C6F8D6B800B01E08D698AC000F0DE
:100290008BC001F0060ED89000360136E804FBE171
:1002A0003F0E00018C15026E036A0050021000011F
:1002B000906F01500310916F020EE15C02E2E16A5F
:0C02C000E552E16EE552E7CFD9FF1200D5
:0402CC00060EF66EB6
:1002D000000EF76E000EF86E00010900F550856FF4
:1002E0000900F550866F03E1856701D03DD0090014
:1002F000F550806F0900F550816F0900F550826F4D
:1003000009000900F550E96E0900F550EA6E090090
:1003100009000900F550836F0900F550846F09004A
:100320000900F6CF87F0F7CF88F0F8CF89F080C0CA
:10033000F6FF81C0F7FF82C0F8FF0001835302E19E
:10034000845307E00900F550EE6E8307F8E2840756
:10035000F9D787C0F6FF88C0F7FF89C0F8FF000112
:0A0360008507000E865BBFD7120070
:06036A00D9CFE6FFDACF57
:10037000E6FFE1CFD9FFE2CFDAFFAC6AAB6AFD0E50
:10038000DBB0AC88DBA202D0AC8CAB8CDBB4AC8E27
:10039000DBA602D0AB8801D0AB8ADBB8AC849E98D8
:1003A000DBBAAB86DBAC02D09D8A01D09D9A9E9AC7
:1003B000DBAE02D09D8801D09D98FB0EDB50AF6E66
:1003C000FB0EFC0EDBCF01F001C000F0016A005013
:1003D000B06EAC8AAB8E949C948EAC50100B04E043
:1003E000AC50800B01E1948CE552E5CFDAFFE7CF0A
:0403F000D9FF12001F
:0C03F400D9CFE6FFDACFE6FFE1CFD9FF5A
:10040000E2CFDAFFE652F20E00019217ABAC03D056
:100410009291ABB09281ABB49285ABB29287AE5061
:10042000DF6EDF50E552E552E5CFDAFFE7CFD9FFC7
:020430001200B8
:0E043200D9CFE6FFDACFE6FFE1CFD9FFE2CF68
:10044000DAFFACAC04D0AC90000192B3AC80FD0EEE
:10045000DB50AD6EE552E5CFDAFFE7CFD9FF1200F2
:10046000000EF36E00EE00F0060E01D81200EA60F6
:1004700002D0EE6AFCD7F350E9601200EE6AFCD7B6
:1004800015EE00F025EE00F0F86A059C66EC01F030
:0C0490004EEC02F00AEC00F0FBD712006A
:02049C0012004C
:02049E0000005C
:0404A0000000000058
:020000040030CA
:0100010002FC
:0100020019E4
:010003001EDE
:010005008179
:010006008178
:00000001FF
